:020000040800F2
:1000000070060020290200083102000833020008AF
:10001000350200083702000839020008000000001D
:100020000000000000000000000000003B0200088B
:100030003D020008000000003F0200089D06000885
:10004000430200084302000843020008430200087C
:10005000430200084302000843020008430200086C
:10006000430200084302000843020008430200085C
:10007000430200084302000843020008430200084C
:10008000430200084302000843020008430200083C
:10009000430200084302000843020008430200082C
:1000A000430200084302000843020008430200081C
:1000B000430200084302000843020008430200080C
:1000C00043020008430200084302000843020008FC
:1000D00043020008430200084302000843020008EC
:1000E00043020008430200084302000843020008DC
:1000F00043020008430200084302000843020008CC
:1001000043020008430200084302000843020008BB
:1001100043020008430200084302000843020008AB
:10012000430200084302000843020008430200089B
:10013000430200084302000843020008430200088B
:10014000430200084302000843020008430200087B
:10015000430200084302000843020008430200086B
:10016000430200084302000843020008430200085B
:100170004302000843020008430200080000000098
:10018000430200084302000800F002F800F03CF8C7
:100190000AA090E8000C82448344AAF10107DA45E2
:1001A00001D100F031F8AFF2090EBAE80F0013F0F8
:1001B000010F18BFFB1A43F0010318471406000093
:1001C00034060000103A24BF78C878C1FAD8520724
:1001D00024BF30C830C144BF04680C6070470000C1
:1001E0000023002400250026103A28BF78C1FBD840
:1001F000520728BF30C148BF0B6070471FB500F0E1
:10020000E1FA1FBD10B510BD00F031F81146FFF73F
:10021000F5FF00F095FA00F04FF803B4FFF7F2FF96
:1002200003BC00F057F80000094880470948004720
:10023000FEE7FEE7FEE7FEE7FEE7FEE7FEE7FEE796
:10024000FEE7FEE704480549054A064B70470000F3
:10025000A506000889010008700000207006002033
:10026000700200207002002070477047704775468A
:1002700000F02CF8AE4605006946534620F0070012
:10028000854618B020B5FFF7DDFFBDE820404FF0F0
:1002900000064FF000074FF000084FF0000B21F070
:1002A0000701AC46ACE8C009ACE8C009ACE8C0093D
:1002B000ACE8C0098D46704710B50446AFF3008026
:1002C0002046BDE81040FFF7A8BF00000048704777
:1002D0001000002001491820ABBEFEE726000200F6
:1002E0007047000070B5044600F014F90646254634
:1002F000681C10B104480078054400BF00F00AF9FA
:10030000801BA842FAD370BD0C000020F8B502464D
:100310000B460025002400200021DCE0012606FA1F
:1003200001F51E6806EA0504AC4273D15E68022E30
:1003300002D05E68122E13D1CF0802F1200656F8C3
:1003400027004E07F70E0F26BE40B0434F07FF0EA3
:100350001E69BE403043CF0802F1200646F8270050
:1003600010684F000326BE40B0431E7906F0030616
:100370004F00BE40304310605E68012E08D05E68BA
:10038000022E05D05E68112E02D05E68122E13D1A7
:1003900090684F000326BE40B0434F00DE68BE4069
:1003A00030439060506801268E40B0431E79C6F3FA
:1003B00000168E4030435060D0684F000326BE4088
:1003C000B0434F009E68BE403043D0605E6806F088
:1003D0008056B6F1805F7DD100BF00260096404E6A
:1003E000366846F480463E4F3E603E46366806F428
:1003F0008046009600BF00BF3A4E8F0856F827008F
:100400008E07370F0F26BE40B043374EB24202D19F
:10041000002624E05EE0354EB24201D101261EE006
:10042000334EB24201D1022619E0324EB24201D11E
:10043000032614E0304EB24201D104260FE02F4EC5
:10044000B24201D105260AE02D4EB24201D1062664
:1004500005E02C4EB24201D1072600E008268F07A6
:100460003F0FBE4030431F4E8F0846F82700264EF0
:100470003068A0435E6806F48036B6F5803F00D150
:100480002043214E3060361D3068A0435E6806F47C
:100490000036B6F5003F00D120431B4E361D3060BC
:1004A000361D3068A0435E6806F48016B6F5801FDE
:1004B00000D12043144E08363060361D3068A0430A
:1004C0005E6806F40016B6F5001F00D120430E4EFC
:1004D0000C363060491C1029FFF420AFF8BD000035
:1004E0004438024008380140000002400004024045
:1004F00000080240000C02400010024000140240BC
:1005000000180240001C0240003C014042694A4081
:1005100042617047014800687047000004000020F5
:100520000348006803490978084401490860704796
:10053000040000200C00002010B50D48006840F4B5
:1005400000700B4908600846006840F4806008604D
:100550000846006840F480700860032000F070F8DE
:100560000F2000F007F800F02BF8002010BD00006D
:10057000003C024070B504460E4800784FF47A7192
:10058000B1FBF0F00C490968B1FBF0F5284600F02A
:100590006BF808B1012070BD102C07D20022214653
:1005A000501E00F00EF80548046001E00120F2E75B
:1005B0000020F0E70C0000200000002008000020D0
:1005C00070472DE9F05F80460D461646002700F083
:1005D0009BF8074639462A46334601F00700C0F12A
:1005E000070ABAF1040F02D94FF0040A01E0C0F182
:1005F000070AD14600F1040ABAF1070F02D24FF000
:10060000000A01E0A0F1030AD4464FF0010A0AFAF9
:1006100009FAAAF1010A0AEA020A0AFA0CFA4FF0E8
:10062000010B0BFA0CFBABF1010B0BEA030B4AEAD3
:100630000B042146404600F06FF8BDE8F09F000033
:1006400000BF00F00702064B19684FF6FF03194080
:10065000044B0B4343EA0221014B196000BF704772
:100660000CED00E00000FA0570B504462546681E52
:10067000B0F1807F01D301200FE0681E4FF0E02130
:1006800048610F214FF0FF3000F046F800204FF096
:10069000E021886107200861002070BD10B5FFF7D8
:1006A0003FFF10BD1448006840F470001249086014
:1006B0001248006840F001001049086000200F490E
:1006C000083108600D4800680D4908400B49086072
:1006D0000C48091D0860081F006820F48020091FCD
:1006E0000860002005490C3108604FF000600249A5
:1006F000803908607047000088ED00E00038024053
:10070000FFFFF6FE1030002402480068C0F302200C
:10071000704700000CED00E010B5002804DB0A076C
:10072000130E054A135406E00A07140E034A00F09C
:100730000F031B1FD45410BD00E400E018ED00E0CF
:100740008CB0FFF7F9FE00BF002001901B48006845
:1007500040F00100194908600846006800F00100F7
:10076000019000BF00BF40200790012008900020AA
:10077000099003200A90802002900120039000201D
:1007800004900320059007A90D48FFF7BFFD02A9BB
:100790000B48FFF7BBFD0FE04FF4FA70FFF7A2FD27
:1007A00040210748FFF7B2FE4FF4FA70FFF79AFDB9
:1007B00080210348FFF7AAFEEEE700003038024030
:1007C000000002404FF04070E1EE100A7047000058
:1007D000F00700080000002010000000C40100081D
:1007E000000800081000002060060000E00100087A
:1007F0000024F400000000001000000001000000D0
:0400000508000229C4
:00000001FF
